:020000020000FC
:020000000BC033
:100016001DC00FED0DBF0FE307BB00EC08BB07E0EB
:1000260001BB0FEF02BB00E808B900E105BF00E223
:100036000BBF00E800BD91E0859B07C090E0789477
:1000460000E305BF889500E105BFA1C00F930FB778
:100056000F93B79921C000EC08BB0FE702BBA0E1E4
:10006600BB27B79919C0BA95E1F7AA95D1F7A0E4CD
:10007600BB27B79BFCCFBA95E1F7AA95D1F790308D
:1000860051F090E000E20ABF789400E305BF88953E
:1000960000E105BF01C091E000E20ABF0F910FBF6A
:1000A6000F911895E0E60193019301930193019353
:1000B600019301930193019301930193019301939A
:1000C6000193019301930193019308958FE3E0E671
:1000D60022270191081708F021600191081708F0FE
:1000E60022600191081708F024600191081708F0B2
:1000F60028600191081708F020610191081708F09F
:100106002062206C28BB909822270191081708F0DE
:1001160021600191081708F022600191081708F084
:1001260024600191081708F028600191081708F06B
:1001360020610191081708F02062206C909A28BB74
:10014600919822270191081708F02160019108175C
:1001560008F022600191081708F024600191081741
:1001660008F028600191081708F02061019108172E
:1001760008F02062206C919A28BB92980AE00A95B2
:10018600F1F70000929A8A9509F0A1CF08956627A3
:10019600F0E06395739572FD08C071FD03C070FDB4
:1001A6002FC09BC070FD09C0D9C071FD03C070FD92
:1001B6005CC0A7C070FD11C0B8C043E00FE372DF9A
:1001C60032E384DF3A95E9F700E06CDF32E37EDF65
:1001D6003A95E9F74A9591F7DCCF43E030E0032FF3
:1001E60061DF74DF73DF33953F33C9F73FE3032FD6
:1001F60059DF6CDF6BDF3A95D1F74A9579F7C9CFAE
:100206004AE0E0E60FE310E01193019311930193A6
:1002160011930193119301931193019311930193F8
:100226001193019311930193119301933FE04EDFD4
:100236003A95E9F7E0E60FE30193119301931193E1
:1002460001931193019311930193119301931193C8
:100256000193119301931193019311933FE036DFBC
:100266003A95E9F74A9569F694CF55E033274FE377
:10027600E0E6319341933193419331934193319326
:100286004193319341933193419331934193319308
:100296004193319341931ADF19DF33954A9541F71C
:1002A6003FE34427E0E63193419331934193319301
:1002B60041933193419331934193319341933193D8
:1002C6004193319341933193419300DFFFDE439590
:1002D6003A9541F75A9551F65CCF55E0442700E030
:1002E600E1DEE0E6E40F0FE30083E75F008334E13D
:1002F600EDDE3A95E9F74395493089F75A9571F756
:1003060048CF55E048E000E0CDDEE0E6E40F0FE33D
:100316000083E75F008334E1D9DE3A95E9F74A9531
:100326004F3F89F75A9571F734CF00E0BBDE53E0B3
:100336004427E0E612E10081069501931A95D9F764
:10034600E0E6E40F0FE3008334E1C0DE3A95E9F717
:100356004395423171F75A9559F71BCF00E0A2DE5B
:1003660053E041E1E0E612E10081069501931A951A
:10037600D9F7E0E6E40F0FE3008334E1A7DE3A9510
:0E038600E9F74A954F3F71F75A9559F702CFA4
:00000001FF
